:100000000C945C000C9479000C9479000C947900A9
:100010000C9479000C9479000C9479000C9479007C
:100020000C9479000C9479000C9479000C9479006C
:100030000C9479000C9479000C9479000C9479005C
:100040000C945B010C9479000C9479000C94790069
:100050000C9479000C9479000C9479000C9479003C
:100060000C9479000C947900000000080002010053
:100070000003040700000000000000000102040863
:100080001020408001020408102001020408102002
:10009000040404040404040402020202020203032E
:1000A0000303030300000000250028002B000000CC
:1000B0000000240027002A0011241FBECFEFD8E043
:1000C000DEBFCDBF11E0A0E0B1E0ECEAF5E002C098
:1000D00005900D92A031B107D9F721E0A0E1B1E080
:1000E00001C01D92A931B207E1F70E94C4020C942D
:1000F000D4020C9400008F929F92AF92BF92CF9245
:10010000DF92EF92FF920F931F93CF93DF938EE0D6
:10011000882E81E0982E61E0F40180810E945402D3
:100120009CE0A92E91E0B92E61E0F50180810E944A
:1001300054022AE0C22E21E0D22E61E0F601808135
:100140000E94540238E0E32E31E0F32E61E0F70123
:1001500080810E94540206E011E061E0F801808194
:100160000E945402C4E0D1E061E088810E94540200
:1001700060E0F40180810E948D0260E0F5018081E1
:100180000E948D0260E0F60180810E948D0260E095
:10019000F70180810E948D0260E0F80180810E9459
:1001A0008D0260E08881DF91CF911F910F91FF90C8
:1001B000EF90DF90CF90BF90AF909F908F900C9476
:1001C0008D02EF92FF920F931F93CF93DF93CEE0B8
:1001D000D1E061E088810E948D0204E011E061E0DD
:1001E000F80180810E948D026091000170910101EF
:1001F000882777FD8095982F0E94C80160E088814C
:100200000E948D024CE0E42E41E0F42E61E0F70103
:1002100080810E948D026091020170910301882704
:1002200077FD8095982F0E94C801CAE0D1E061E077
:1002300088810E948D0260E0F70180810E948D021A
:1002400060E0F80180810E948D0208E011E061E029
:10025000F80180810E948D0260910001709101017E
:10026000882777FD8095982F0E94C80160E0F801EB
:1002700080810E948D0206E011E061E0F80180813A
:100280000E948D026091020170910301882777FD21
:100290008095982F0E94C80160E088810E948D029D
:1002A00060E0F8018081DF91CF911F910F91FF9065
:1002B000EF900C948D021F920F920FB60F921124A3
:1002C0002F933F938F939F93AF93BF93809111018F
:1002D00090911201A0911301B0911401309110017D
:1002E00023E0230F2D3720F40196A11DB11D05C079
:1002F00026E8230F0296A11DB11D209310018093C3
:10030000110190931201A0931301B09314018091F5
:10031000150190911601A0911701B0911801019655
:10032000A11DB11D8093150190931601A093170193
:10033000B0931801BF91AF919F918F913F912F91F1
:100340000F900FBE0F901F9018953FB7F8948091B3
:10035000150190911601A0911701B091180126B5D1
:10036000A89B05C02F3F19F00196A11DB11D3FBFED
:100370006627782F892F9A2F620F711D811D911D7D
:1003800042E0660F771F881F991F4A95D1F708959D
:10039000CF92DF92EF92FF92CF93DF936B017C01BC
:1003A0000E94A501EB01C114D104E104F10489F01C
:1003B0000E94D3020E94A5016C1B7D0B683E734016
:1003C00090F381E0C81AD108E108F108C851DC4F68
:1003D000EACFDF91CF91FF90EF90DF90CF9008951B
:1003E000789484B5826084BD84B5816084BD85B510
:1003F000826085BD85B5816085BDEEE6F0E08081D7
:1004000081608083E1E8F0E01082808182608083F7
:10041000808181608083E0E8F0E08081816080837A
:10042000E1EBF0E0808184608083E0EBF0E08081AC
:1004300081608083EAE7F0E080818460808380814E
:1004400082608083808181608083808180688083F6
:100450001092C1000895833081F028F4813099F022
:100460008230A1F008958730A9F08830B9F0843047
:10047000D1F4809180008F7D03C0809180008F77C0
:1004800080938000089584B58F7702C084B58F7DF6
:1004900084BD08958091B0008F7703C08091B00033
:1004A0008F7D8093B0000895CF93DF9390E0FC019F
:1004B000E458FF4F2491FC01E057FF4F84918823BB
:1004C00049F190E0880F991FFC01E255FF4FA5917B
:1004D000B4918C559F4FFC01C591D4919FB7611188
:1004E00008C0F8948C91209582238C938881822374
:1004F0000AC0623051F4F8948C91322F30958323E6
:100500008C938881822B888304C0F8948C91822BF1
:100510008C939FBFDF91CF9108950F931F93CF933B
:10052000DF931F92CDB7DEB7282F30E0F901E859ED
:10053000FF4F8491F901E458FF4F1491F901E057FE
:10054000FF4F04910023C9F0882321F069830E94A2
:100550002B026981E02FF0E0EE0FFF1FEC55FF4FFB
:10056000A591B4919FB7F8948C91611103C0109537
:10057000812301C0812B8C939FBF0F90DF91CF917E
:100580001F910F91089508950E94F0010E94C302E7
:100590000E947B00C0E0D0E00E94E1002097E1F3E0
:0C05A0000E940000F9CF0895F894FFCFEE
:1005AC00B80BE8030A00090008000D000C000B0052
:00000001FF
